:020000040800F2
:10000000C853002029020008172C0008372A0008CE
:10001000152C00080B050008C5350008000000007D
:10002000000000000000000000000000D12F0008C8
:10003000BB05000800000000192C0008D52F00089F
:10004000430200084302000843020008430200087C
:10005000430200081B2C000843020008430200086A
:10006000430200084302000843020008430200085C
:100070000D050008190500082505000831050008D0
:100080003D05000849050008430200084302000836
:10009000430200084302000843020008430200082C
:1000A000430200084302000843020008430200081C
:1000B000430200084302000843020008430200080C
:1000C000430200084302000843020008492C0008CC
:1000D00043020008AD350008B935000843020008A6
:1000E0004302000843020008430200080000000029
:1000F0000000000000000000000000000000000000
:1001000000000000000000000000000043020008A2
:1001100043020008430200084302000800000000F8
:10012000430200084302000843020008430200089B
:100130004302000800000000000000000000000072
:100140004302000843020008000000000000000015
:10015000000000000000000000000000000000009F
:1001600000000000000000004302000843020008F5
:100170004302000800000000000000000000000032
:10018000000000004302000800F002F800F03CF814
:100190000AA090E8000C82448344AAF10107DA45E2
:1001A00001D100F031F8AFF2090EBAE80F0013F0F8
:1001B000010F18BFFB1A43F0010318471851000044
:1001C00038510000103A24BF78C878C1FAD85207D5
:1001D00024BF30C830C144BF04680C6070470000C1
:1001E0000023002400250026103A28BF78C1FBD840
:1001F000520728BF30C148BF0B6070471FB505F0DC
:1002000047F81FBD10B510BD00F046F91146FFF7C5
:10021000F5FF03F0A1FE00F064F903B4FFF7F2FF6D
:1002200003BC00F06BF9000009488047094800470B
:10023000FEE7FEE7FEE7FEE7FEE7FEE7FEE7FEE796
:10024000FEE7FEE704480549054A064B70470000F3
:100250006D30000889010008C84D0020C8530020F7
:10026000C84F0020C84F002053EA020C00F06980FC
:100270002DE9F04B4FF00006002B1FBFB3FA83F5BA
:1002800003FA05F424FA05F65E4012BF1643B2FAEB
:1002900082F502FA05F4C5F120051EBF22FA05FC1D
:1002A00044EA0C04203556EA044C4FEA144418BFC3
:1002B000641C4FF000084FF00009904271EB030CF2
:1002C00039D3002919BFB1FA81F701FA07F6B0FA5C
:1002D00080F700FA07F6C7F120071EBF20FA07FCD7
:1002E00046EA0C062037B6FBF4FCA7EB0507103FE7
:1002F00007F01F0BCBF120060CFA0BFB2CFA06F6CD
:1003000044BFB3460026202FA4BF5E464FF0000B2B
:100310005BEA060C08BF4FF0010B19EB0B09ABFBB6
:10032000027C48EB0608C01B06FB02CC0BFB03CC8F
:1003300071EB0C01C1E70B46024641464846BDE859
:10034000F08B13B54FF000004FF00001AFF30080C9
:10035000BDE81C407047032A40F2308010F0030CC7
:1003600000F0158011F8013BBCF1020F624498BF08
:1003700011F801CB00F8013B38BF11F8013BA2F1A5
:10038000040298BF00F801CB38BF00F8013B11F020
:10039000030300F02580083AC0F0088051F8043BC0
:1003A000083A51F804CBA0E80810F5E7121D5CBF2D
:1003B00051F8043B40F8043BAFF30080D20724BF60
:1003C00011F8013B11F801CB48BF11F8012B24BFF4
:1003D00000F8013B00F801CB48BF00F8012B704743
:1003E00010B5203AC0F00B80B1E81850203AA0E8D0
:1003F0001850B1E81850A0E81850BFF4F5AF5FEA04
:10040000027C24BFB1E81850A0E8185044BF18C9B6
:1004100018C0BDE810405FEA827C24BF51F8043B5D
:1004200040F8043B08BF7047D20728BF31F8023BB1
:1004300048BF11F8012B28BF20F8023B48BF00F845
:10044000012B70474FF0000200B5134694469646C4
:10045000203922BFA0E80C50A0E80C50B1F12001D7
:10046000BFF4F7AF090728BFA0E80C5048BF0CC085
:100470005DF804EB890028BF40F8042B08BF7047E3
:1004800048BF20F8022B11F0804F18BF00F8012B55
:100490007047704770477047754600F02BF8AE46BE
:1004A00005006946534620F00700854618B020B580
:1004B000FFF7C8FEBDE820404FF000064FF00007F0
:1004C0004FF000084FF0000B21F00701AC46ACE8FC
:1004D000C009ACE8C009ACE8C009ACE8C0098D4669
:1004E000704710B50446AFF300802046BDE81040C9
:1004F000FFF793BE00487047644D00200149182063
:10050000ABBEFEE7260002007047FEE7014800F0A0
:100510007CB80000104B0020014800F076B80000C5
:10052000CC4A0020014800F070B80000544C002074
:10053000014800F06AB80000984C0020014800F023
:1005400064B80000DC4C0020014800F05EB80000F8
:10055000204D00200B4B01681422994207D20A4B10
:100560001944B1FBF2F189000164084908E0054B28
:100570005B421944B1FBF2F1890001640149083979
:10058000C163704708040240F8FFFDBF000002404D
:1005900030B590F840500124AC40C56B6C600468E5
:1005A00063604368102B036803D099600068C260E1
:1005B00030BD9A600068C16030BD704772B6FEE71A
:1005C00010B590F821100024022903D00421816382
:1005D000012418E001680A6822F00E020A6001682E
:1005E0000A6822F001020A6090F84020C36B0121E2
:1005F00001FA02F25A6080F82110002180F82010E0
:10060000416B01B18847204610BDF0B4C16B0D6845
:1006100001680C68066C042202FA06F32B420FD024
:1006200063070DD50B689B0603D40B6823F0040306
:100630000B6090F840108A40C16B4A60C16A1BE0B1
:10064000022303FA06F72F424FF0000C4FF001028D
:1006500016D0A70714D50C68A40605D40C6824F09E
:100660000A040C6080F8212090F840108B40C16B88
:100670004B6080F820C0816A002918D0F0BC084780
:100680000823B3402B4212D0230710D50B6823F068
:100690000E030B6090F84010C36B02FA01F1596031
:1006A000826380F8212080F820C0016BE4E7F0BC71
:1006B000704770B5040021D0022084F82100226820
:1006C000116843F6F0708143D4E901031843D4E97B
:1006D00003352B43184363691843A3691843E3693F
:1006E0001843084310602046FFF734FF0020A06342
:1006F000012184F8211084F8200070BD012070BD14
:1007000070B5044690F82000002501280CD0012087
:1007100084F8200094F821600020012E06D084F88F
:1007200020000225284670BD022070BD022684F8F4
:100730002160A0632068066826F001060660204656
:10074000FFF726FFE06A00282068016802D041F028
:100750000E0106E041F00A0101602068016821F005
:10076000040101602068016841F001010160D9E7DE
:100770002DE9F84FDFF864B100234FF0010C4FF082
:10078000030A4FF00F090BF1040EA0E00CFA03F678
:10079000324072D04C68022C01D0122C0ED1DC08F1
:1007A00000EB8408D8F820405D07EF0E09FA07F542
:1007B000AC430D69BD402543C8F8205007685D0073
:1007C00091F804800AFA05F408F00308A74308FA30
:1007D00005F848EA0708C0F800804F68012F05D0E7
:1007E000022F03D0112F01D0122F11D18768D1F819
:1007F0000C80A74308FA05F848EA0708C0F8088003
:100800004768B7430E79C6F300169E403E434660E4
:10081000C668A6438C68AC403443C4604C68E400AE
:1008200054D52F4CA56945F00105A561A46923F0B5
:10083000030504F0010400942A4C2E19B4689D07A6
:100840002F0F09FA07F5AC43B0F1904F04D0264DB5
:10085000A84203D1012512E0002510E0234DA84253
:1008600001D102250BE0224DA84201D1032506E06B
:10087000204DA84202D1042501E027E00525BD4016
:100880002543B560DBF800405D464E689443F603AF
:1008900000D514432C60DEF8004075464E68944342
:1008A000B60300D514432C600C4D08352C684E68F7
:1008B0009443F60200D514432C60084D0C352C6887
:1008C0004E689443B60200D514432C605B1C0A6842
:1008D00032FA03F47FF45AAFBDE8F88F0004014008
:1008E00000100240000001400004004800080048D9
:1008F000000C00480010004842690A4200D0090478
:10090000816170470AB18161704781627047000060
:100910000148806870470000080000200248816894
:10092000027811448160704708000020074810B524
:10093000016841F010010160032000F075F80F20FC
:1009400000F006F800F024F8002010BD002002405E
:1009500070B50D4D04464FF47A712878B1FBF0F074
:100960000A490968B1FBF0F001F088F848B9102C89
:1009700007D200222146501E00F036F800206C609D
:1009800070BD012070BD0000080000201400002090
:100990000D4808B5816941F001018161816901F06B
:1009A00001010091C16941F08051C161C06900221B
:1009B00000F0805000901146052000F015F8BDE8C9
:1009C0000840052000F002B800100240002809DBB2
:1009D00000F01F02012191404009800000F1E02059
:1009E000C0F8001170470000F0B40E4B1B680C46B5
:1009F000C3F30223C3F10705042D00D90425191DF3
:100A0000072901D2002300E0DB1E012606FA05F1CA
:100A1000491E214099409E40761E16403143F0BC4D
:100A200002F0D1BD0CED00E0064900F007020868B5
:100A30004FF6FF03184040EA0220034A10430860C3
:100A4000704700000CED00E00000FA052DE9F84FBA
:100A500005460068774CC0036FD5E0690026C000EA
:100A600008D4E06940F08050E061E069012600F0C0
:100A70008050009070480168C90512D40168804612
:100A800041F480710160FFF743FF074605E000BFB6
:100A9000FFF73EFFC01B642835D8D8F80000C0051A
:100AA000F6D5206A10F4407053D0A98801F4407143
:100AB00081424ED0206A4FF4803191FAA1F2B2FA0D
:100AC00082F297005D4A4FF00108174420F440700D
:100AD000C7F8008491FAA1F1B1FA81F102EB81012A
:100AE0000023C1F800342062C00732D0FFF710FFA6
:100AF000074641F2883A4FF0020907E0FFF708FF86
:100B0000C11B514502D90320BDE8F88F99FAA9F11C
:100B1000B1FA81F141F040014846B8EB511F01D1D3
:100B200021680CE090FAA0F1B1FA81F141F04001A6
:100B3000B0EB511F02D1216A01E015E0616A99FA18
:100B4000A9F0B0FA80F000F01F0008FA00F211429C
:100B5000D4D0206A696820F44070084320621EB136
:100B6000E06920F08050E0612878C00705D0206B54
:100B7000A96820F00300084320632878800705D582
:100B8000206BE96820F44030084320632878400750
:100B900005D5206B296920F440200843206328787C
:100BA000800605D5206BE96920F01000084320631A
:100BB0002868800305D56068296B20F4800008430D
:100BC00060602878400605D5206B296A20F0200057
:100BD000084320632878000705D5206B696920F455
:100BE0004010084320632878C00605D5206BA9690A
:100BF00020F44000084320632888800505D56068FC
:100C0000A96A20F40000084360602878000605D532
:100C1000E06A696A20F4F8700843E0622888C0043A
:100C200005D5206BE96A20F480700843206300201A
:100C30006AE70000001002400070004000004242DD
:100C40002DE9F0470F46050069D04A4E306800F0A4
:100C50000700B84209D2306820F0070038433060FE
:100C6000306800F00700B84259D12878424C80071C
:100C700005D56068A96820F0F00008436060287816
:100C8000C0073DD06968012001290DD0022923D079
:100C90005FF0020393FAA3F2B2FA82F242F020026A
:100CA000520904D0226803E04FF40033F2E7626A8D
:100CB00093FAA3F3B3FA83F303F01F0398400242BD
:100CC0002DD0606820F0030008436060FFF720FE2D
:100CD000804641F288390CE04FF00073DAE700BF3C
:100CE000FFF716FEA0EB0801494502D90320BDE835
:100CF000F0876068696800F00C00B0EB810FEFD1FD
:100D0000306800F00700B8420BD9306820F00700C7
:100D100038433060306800F00700B84201D001204D
:100D2000E5E72878400705D56068E96820F4E060C9
:100D3000084360602878000706D56068296920F4B8
:100D4000605040EAC100606000F04EF86168F02237
:100D500092FAA2F201F0F001B2FA82F2D140074A0F
:100D6000515CC8400649086006480068FFF7F0FD7E
:100D70000020BCE70020024000100240BA520008E8
:100D8000140000200C000020084809490068496848
:100D90004FF4E06292FAA2F201F4E061B2FA82F258
:100DA000D140044A515CC840704700001400002044
:100DB00000100240CA520008084809490068496802
:100DC0004FF4605292FAA2F201F46051B2FA82F248
:100DD000D140044A515CC840704700001400002014
:100DE00000100240CA520008164A10B55168164851
:100DF00001F00C03042B20D0082B1ED14FF47014EB
:100E000094FAA4F401F47013B4FA84F4E3400F4CA0
:100E1000D26AE45C0F2393FAA3F302F00F02B3FA51
:100E200083F3DA40094B1033C9039A5C06D50023DB
:100E30001946FFF719FAA0FB040110BD0448A4FBF2
:100E4000000110BD0010024000127A009A52000802
:100E500000093D002DE9F84F050071D02878FC4EBF
:100E6000C0074FF0010425D070686704C0F381000B
:100E7000012807D07068C0F3810002281BD1706878
:100E8000C00318D597FAA7F0B0FA80F040F0200020
:100E9000400901D0306800E0706A97FAA7F1B1FA12
:100EA00081F101F01F0104FA01F1084265D0686880
:100EB0000028D2D061E06868B0F5803F0BD010B157
:100EC000B0F5A02F17D0306820F480303060306843
:100ED00020F4802002E0306840F480303060F06A16
:100EE000A96820F00F000843F062686820B3FFF79C
:100EF0000FFD80460AE0306840F480203060EAE769
:100F0000FFF706FDA0EB0800642871D897FAA7F058
:100F1000B0FA80F040F02000400901D0306800E0D5
:100F2000706A97FAA7F1B1FA81F101F01F0104FA92
:100F300001F10842E4D020E0FFF7EAFC804607E038
:100F4000C2E000BFFFF7E4FCA0EB08006428DCD897
:100F500097FAA7F0B0FA80F040F02000400901D0E5
:100F6000306800E0706A97FAA7F1B1FA81F101F0F8
:100F70001F0104FA01F10842E4D12878DFF8D48295
:100F800080074FF0000A4FF0020730D570684FF02D
:100F9000F80B10F00C0F07D07068C0F38100022826
:100FA00027D17068C00324D497FAA7F0B0FA80F074
:100FB00040F02000400901D0306800E0706A97FAE4
:100FC000A7F1B1FA81F101F01F0104FA01F1084221
:100FD00002D02869012877D130689BFAABF220F063
:100FE000F8016869B2FA82F29040014331605AE038
:100FF00064E1286988B394FAA4F0B0FA80F048F864
:101000002040FFF785FC814606E000BFFFF780FC2B
:10101000A0EB090002289AD897FAA7F0B0FA80F05E
:1010200040F02000400901D0306800E0706A97FA73
:10103000A7F1B1FA81F101F01F0104FA01F10842B0
:10104000E4D030689BFAABF26969B2FA82F220F020
:10105000F80091400843306025E0FFE794FAA4F0DF
:10106000B0FA80F048F820A0FFF752FC814605E076
:10107000FFF74EFCA0EB09000228CCD897FAA7F0A6
:10108000B0FA80F040F02000400901D0306800E064
:10109000706A97FAA7F1B1FA81F101F01F0104FA21
:1010A00001F10842E4D1287800076CD5A869A8B3FB
:1010B00094FAA4F0B0FA80F008EB8000C0F8804405
:1010C000FFF726FC814607E0A4E100BFFFF720FC04
:1010D000A0EB090002289ED897FAA7F0B0FA80F09A
:1010E00040F06000B4EB501F01D130680BE097FA7C
:1010F000A7F0B0FA80F040F06000B7EB501F01D1CC
:10110000306A00E0706A97FAA7F1B1FA81F101F054
:101110001F0104FA01F21042D8D034E0FFE794FA3C
:10112000A4F1B1FA81F108EB8101C1F880A4FFF7C5
:10113000EFFB814606E000BFFFF7EAFBA0EB0900EA
:1011400002289AD897FAA7F0B0FA80F040F0600031
:10115000B4EB501F01D130680BE097FAA7F0B0FA5A
:1011600080F040F06000B7EB501F01D1306A00E022
:10117000706A97FAA7F1B1FA81F101F01F0104FA40
:1011800001F21042D8D12878400768D5F0694FF0B5
:101190000009C00009D4F06940F08050F061F069A6
:1011A0004FF0010900F0805000902B480168C905FC
:1011B00012D4016841F480710160FFF7A9FB8346F6
:1011C00006E000BFFFF7A4FBA0EB0B00642875D876
:1011D00021480068C005F5D5E86801280AD008B1A3
:1011E000052811D0306A20F001003062306A20F00A
:1011F000040002E0306A40F001003062E86868B341
:10120000FFF786FB83460DE0306A40F00400306251
:10121000F0E700BFFFF77CFBA0EB0B0141F2883049
:1012200081424BD897FAA7F0B0FA80F040F0400026
:10123000B4EB501F01D1306813E097FAA7F0B0FA71
:1012400080F040F04000B7EB501F09D1306A08E051
:101250000010024000004242007000400CE040E0FC
:10126000706A97FAA7F1B1FA81F101F01F0104FA4F
:1012700001F21042CED02DE0FFF74AFB834607E093
:10128000FFF746FBA0EB0B0141F28830814215D8F5
:1012900097FAA7F0B0FA80F040F04000B4EB501F8E
:1012A00001D130680CE097FAA7F0B0FA80F040F076
:1012B0004000B7EB501F02D1306A01E083E0706A52
:1012C00097FAA7F1B1FA81F101F01F0104FA01F2D6
:1012D0001042D5D1B9F1000F03D0F06920F0805051
:1012E000F061E86980B37168C1F38101022977D0A8
:1012F0004FF080714F000228504609D091FAA1F1B9
:10130000B1FA81F148F82100FFF702FB05465DE0E4
:10131000894691FAA1F1B1FA81F1C24648F821005B
:10132000FFF7F6FA804605E0FFF7F2FAA0EB0800B7
:10133000022848D897FAA7F0B0FA80F040F02000D1
:10134000400902D0306801E066E0706A97FAA7F1C0
:10135000B1FA81F101F01F0104FA01F10842E3D171
:10136000D5E908100843716821F4741108437060CE
:1013700099FAA9F0B0FA80F04AF82040FFF7C8FACD
:10138000054604E0FFF7C4FA401B02281BD897FA71
:10139000A7F0B0FA80F040F02000400901D030689A
:1013A00000E0706A97FAA7F1B1FA81F101F01F012C
:1013B00004FA01F10842E5D02EE000BFFFF7A8FAD9
:1013C000401B022802D90320BDE8F88F97FAA7F046
:1013D000B0FA80F040F02000400902D0306801E00F
:1013E0000BE0706A97FAA7F1B1FA81F101F01F01E1
:1013F00004FA01F10842E1D10EE00128E4D070685E
:101400002A6A00F48031914204D1696A00F47010B4
:10141000884201D00120D7E70020D5E770470000BF
:1014200038B5016804464A688868C043430606D553
:10143000C30704D1D3435B0601D4E16C05E0830705
:1014400008D4D3431B0605D4216D01B02046BDE866
:1014500030400847830603D5430601D5C30551D460
:10146000D3439B064ED443060AD494F85D30032B35
:1014700049D0236E43F004032366CB688B68009346
:10148000830609D4236E43F0010323668B6800931F
:101490000B6823F040030B60C00506D4206E40F0BB
:1014A00008002066206880680090206E002829D0FF
:1014B0002068416821F0E0014160012084F85D006E
:1014C000900701D4D00722D02068416821F00301A1
:1014D0004160114DA06D40B14563A06DFFF770F8FC
:1014E00018B1206E40F040002066606D002809D0E1
:1014F0004563606DFFF764F8002803D0206E40F06C
:101500004000206638BDC8688868009038BD204615
:10151000FFF784FF38BD0000552C00082DE9F0418D
:10152000040005D00025A56294F85D0018B107E01D
:101530000120BDE8F08184F85C50204600F04AF8B4
:10154000022384F85D302068016821F040010160C9
:10155000E0684FF4E066B04201D9002101E04FF4A9
:101560008051B0F5706F02D0B04200D0A562276BF9
:10157000012227B9B04201D9236300E02263D4E9F4
:1015800001031843D4E9043633431843238B03F48F
:1015900000731843E3691843236A1843A36A184386
:1015A00023681860636B606AA66918430427E368C0
:1015B00007EA164633431843084321684860206809
:1015C000C16921F40061C161256684F85D200020B5
:1015D000AFE70000F0B587B0064614216846FEF775
:1015E00031FF2A49306888424ED12948816941F447
:1015F00080518161816901F480510591416941F413
:10160000003141614069002400F400300590E02081
:1016100000900220CDE901040320039005200490EE
:1016200069464FF09040FFF7A3F81B4D19488027FB
:1016300001C5102091C5184845F810496C61AC618E
:10164000EC61FFF736F808B1FEF7B8FF75656E621A
:10165000114D104844351438C5E90004C5E9024766
:101660002C616C61AC612846EC61FFF722F808B18F
:10167000FEF7A4FFB5650022114623206E62FFF736
:10168000B3F92320FFF7A2F907B0F0BD0030014005
:101690000010024030000240CC4A00202DE9F84FF3
:1016A000044690F85C0000271D461646894601282E
:1016B0000DD04FF0010B84F85CB0FFF729F980469C
:1016C00094F85D00BA46012804D002279FE002206A
:1016D000BDE8F88FB9F1000F6FD0002E6DD0032058
:1016E00084F85D00C4F860A0C4F83890A687E68747
:1016F000C4F840A0A4F844A0A4F846A0C4F850A0A0
:10170000C4F84CA0A068B0F5004F04D1206801686F
:1017100041F48041016020680168490603D40168F2
:1017200041F040010160E068B0F5E06F606823D9E6
:1017300008B1012E1CD1A06B21680088C86006E0AA
:1017400020688168890709D5A16B0988C160A06BF1
:10175000801CA063E08F401EE08709E0FFF7D8F807
:10176000A0EB0800A84202D3681C01D046E0ADB34C
:10177000E08F0028E4D136E008B1012E30D1E08FAF
:101780000128A06B03D921680088C8600FE0216898
:101790000078087314E0E08722E0206881688907F8
:1017A00014D5E18F0129A16B08D90988C160A06B0C
:1017B000801CA063E08F801EEDE727E009780173AD
:1017C000A06B401CA063E08F401EE4E7FFF7A0F889
:1017D000A0EB0800A84202D3681C01D00EE06DB156
:1017E000E08F0028D9D142462946204601F03BFA35
:1017F00008B120202066A06810B105E0032706E0AC
:101800002068C16880680090206E00B1012784F8CC
:101810005DB084F85CA038465AE72DE9F05F0446D5
:1018200090F85C0000270A9E1D4692468B464FF0BA
:10183000010901280ED0012084F85C00FFF768F848
:10184000804694F85D00616801280CD0B1F5827F74
:1018500007D102E00220BDE8F09FA16809B9042881
:1018600001D0022700E1BBF1000F24D0BAF1000F34
:1018700021D005B394F85D00042802D0052084F837
:101880005D0000202066C4F840A0A4F84650A4F8EB
:101890004450C4F838B0E587A587E0642065E06867
:1018A0004FF4E061884201D8012D06D920684268D2
:1018B00022F4805205E00127D6E02068426842F415
:1018C0008052426020680268520603D4026842F0E7
:1018D00040020260E0688842606845D908B1012D85
:1018E0003AD1A06B21680088C860A06B801CA063FF
:1018F000E08F401EE0872FE02068816889070FD5C0
:10190000E18F69B1B9F1010F0AD1A16B0988C160FA
:10191000A06B801CA063E08F401EE0874FF00009A1
:1019200020688168C9070FD0B4F8461061B1C0685B
:10193000216C0880206C801C2064B4F84600401E96
:10194000A4F846004FF00109FEF7E2FFA0EB080003
:10195000B04201D3701C75D1E08F0028CCD1B4F80F
:1019600046000028C8D176E008B1012D6CD1E08F87
:101970000128A06B08D921680088C860A06B801C72
:10198000A063E08F801E07E0216800780873A06BD9
:10199000401CA063E08F401EE08755E0206881680E
:1019A00089071AD5E18FC1B1B9F1010F15D1E18FC6
:1019B0000129A16B07D90988C160A06B801CA063B5
:1019C000E08F801E06E009780173A06B401CA063C5
:1019D000E08F401EE0874FF0000920688168C9074A
:1019E00028D0B4F8461029B3B4F84610012914D908
:1019F000C068216C0880206C801C2064B4F846000C
:101A0000801EA4F84600B4F84600012810D82068CB
:101A1000416841F4805141600AE0007B216C08700C
:101A2000206C401C2064B4F84600401EA4F8460018
:101A30004FF00109FEF76CFFA0EB0800B04202D3A3
:101A4000701C01D018E0BEB1E08F0028A6D1B4F818
:101A500046000028A2D142463146204601F003F953
:101A600010B1012720202066012084F85D000020AD
:101A700084F85C003846EEE60327F5E710B5401E13
:101A8000B0F1807F01D3012010BD4FF0E0246061F0
:101A90000F21601701F097FD0020A0610720206151
:101AA000002010BD704770472DE9F04102680446E0
:101AB000D0691168936840F60F0528424FF0000581
:101AC00005D186067BD58E0679D5216E88E003F098
:101AD000010601F49077374371D0C70707D0CF05CF
:101AE00005D501271762E26F42F00102E267820723
:101AF00008D5DA0706D0276802223A62E26F42F080
:101B00000402E267420708D5DA0706D023680422F8
:101B10001A62E26F42F00202E26702070AD501F0A0
:101B20002002324306D0236808221A62E26F42F094
:101B30000802E267020509D54A0107D523684FF478
:101B400000621A62E26F42F02002E267E26F002A4E
:101B50002ED0800605D5880603D5216E09B1204612
:101B60008847E06F21688968490602D410F0280F81
:101B700020D0204601F062FB20688168490614D518
:101B8000816821F040018160E06E70B11D494163C0
:101B9000E06EFEF715FD00280AD0E06E416B00E014
:101BA0002046BDE8F041084709E02046FFF77BFFEB
:101BB000BDE8F0812046FFF776FFE567F8E7C6024B
:101BC00009D55B0207D54FF4801010622046BDE8AE
:101BD000F041FFF767BF030605D50B0603D5616E1D
:101BE0000029DDD1E4E74006E2D54806E0D51168DA
:101BF000204621F04001116020216167656600F0F8
:101C000073FED5E7A931000810B5040002D0606F5B
:101C100010B107E0012010BD002084F870002046BC
:101C200000F026F8242060672068016821F0010197
:101C30000160204601F074FB0128ECD0606A10B10D
:101C4000204601F021FA2068416821F4904141606A
:101C50002068816821F02A0181602068016841F0D4
:101C6000010101602046BDE8104001F071BA00009A
:101C70002DE9F04387B0044614216846FEF7E2FBE5
:101C8000DFF86481D4F800C05848022703210723F5
:101C9000002580264FF090424FF01009C4454CD1EA
:101CA000D0F818C04CF4804CC0F818C0D0F818C058
:101CB0000CF4804CCDF814C0D0F814C04CF4003CA7
:101CC000C0F814C04069029500F400300590CDE9D9
:101CD00003134802CDE9000769461046FEF748FDA8
:101CE000444F4348C7E902563D617D61BD61FD61D6
:101CF000C7E900093846FEF7DCFC08B1FEF75EFCD8
:101D0000A7667C623B4F3A4844371430C7E9000568
:101D1000C7E902563D617D61BD613846FD61FEF750
:101D2000C8FC08B1FEF74AFCE766002211462520F0
:101D30007C62FEF759FE252051E0DFF8BC80C445E7
:101D40004FD1D0F81CC04CF4003CC0F81CC0D0F8F7
:101D50001CC00CF4003CCDF814C0D0F814C04CF4F6
:101D6000003CC0F814C04069029500F400300590B2
:101D7000CDE903130C20CDE9000769461046FEF7B4
:101D8000F7FC1C4F1A4888372830C7E90005C7E917
:101D900002563D617D61BD613846FD61FEF789FCFB
:101DA00008B1FEF70BFCE7667C62124F1048CC3797
:101DB0003C30C7E902563D617D61BD61FD61C7E907
:101DC00000093846FEF775FC08B1FEF7F7FBA76679
:101DD0000022114626207C62FEF706FE2620FEF732
:101DE000F5FD07B0BDE8F083003801400010024067
:101DF00044000240544C00200044004010B5836F62
:101E0000202B42D1B1B1AAB190F87030012B3CD057
:101E1000012380F870304165A0F85820A0F85A20BE
:101E2000002101661C038268FF23A24207D10269D8
:101E300012B125E0012010BD40F2FF121DE0CAB131
:101E4000A0F85C10C167222282670268936843F0A1
:101E5000010393608268A24201D102699AB10C4ADF
:101E6000026680F870100068016841F490710160AA
:101E7000002010BD02691AB17F22A0F85C20E1E7C2
:101E8000A0F85C30DEE7034AEAE7022010BD00005C
:101E9000C53200086B3200082DE9F14F82B0DFF83F
:101EA000F0930298F94A0927016809F5887000241F
:101EB0000090914273D1F74EF748D6F8701600683B
:101EC000814201D286F83B4100F5FA70C6F87006EF
:101ED000F04896F83BC100F12C0300F59E7500F226
:101EE0003F1B00F25B3AB0F86826591C90F83C01A1
:101EF0004FF0130EBCF1260F51D2DFE80CF0131C8B
:101F00002A317196A3B3C7F4F1F0EFEEEDECEBEAF2
:101F1000E9E8E7E6E5E4E3E2E1E0DFDEDDDCDBDAA9
:101F2000D9D8D7D6A52805D1012286F83B216054FF
:101F3000A6F868269FE25A2808D102234DE05054A3
:101F4000B6F86806401CA6F8680694E286F83B419D
:101F500091E2032386F83B31C31C86F87E36EEE718
:101F600010281DD011281DD012281DD013281DD0D7
:101F700020281DD021281DD022281DD023281DD087
:101F800024281DD030281DD040281DD050281DD019
:101F900060281DD070281DD080281DD06BE26FE214
:101FA00004231AE01B2318E01C2316E01D2314E071
:101FB000052312E00C2310E00E230EE016230CE0A4
:101FC00021230AE0062308E00B2306E0072304E0B0
:101FD0000F2302E0142300E0192386F83B31AEE71B
:101FE000505496F83C01EE2816D1B6F86806B6F8BB
:101FF0007E26904210D1C35C521F934272D1401C86
:1020000082B2A6F8682686F83B41A6F866265846AE
:1020100001F052FB34702EE2B6F86806401CA6F8B8
:102020006806042086F83B0125E2505496F83C01EE
:10203000EE288AD1B6F8680696F87E16884284D1D2
:10204000747086E15054B6F86806401CA6F868061D
:10205000A6F87846A6F87A4696F83C0186F87D06FA
:102060000820DFE7505496F83C01EE2896D1B6F8E8
:10207000680696F87E16884290D1A6F87846A6F8AB
:102080007A460121F17089F8AA1962E15054B6F834
:1020900068060121401CA6F8680696F83C0186F8FF
:1020A0007C0689F8AA190A20BCE7D1E1C6E1BBE1A8
:1020B000B0E1A5E173E164E159E14EE13CE12DE1DC
:1020C0001BE110E1FEE0F3E0E8E0CEE0C6E089E0ED
:1020D00077E06BE060E055E04AE03DE02FE022E091
:1020E0000FE000E094E0505496F83C01EE2805D152
:1020F000B6F8680696F87E1688422CD002F064FD89
:10210000B9E15054B6F87E0696F83C11401F814262
:102110007ED1B6F86806401CA6F8680686F83B71C2
:10212000F470F476A7E1505496F83C0186F88107E4
:10213000B6F86806401CA6F868060D2072E75054F1
:1021400096F83C01EE28DBD1B6F8680696F87E16C4
:102150008842D5D1B471FCE0505496F83C0186F821
:102160008007B6F86806401CA6F86806152059E7EF
:1021700086F883075054B6F86806401CA6F868062F
:1021800010204FE786F883075054B6F86806401CC5
:10219000A6F86806112045E786F882075054B6F87D
:1021A0006806401CA6F8680612203BE786F88207FE
:1021B0005054B6F86806401CA6F8680686F83BE15D
:1021C000EAE05054B6F87E0696F83C11401F814272
:1021D00007D1B6F86806401CA6F8680686F83B7179
:1021E000F47148E1505496F863C696F83C210CF817
:1021F0000A2096F83C01EE2823D1B6F86806B6F816
:102200007E2690421DD1C35C521F934200D100E054
:10221000F4E0401C82B2A6F8682696F86306401ED9
:1022200086F8630686F83B41A6F86626584601F014
:1022300043FA96F863265146009801F03DFA34724D
:1022400019E1B6F86806401CA6F8680696F8630619
:10225000401C86F8630686F83BE10CE1B472521C20
:10226000A6F8682686F83B7105E15054B6F87E065C
:1022700096F83C11401F814207D1B6F86806401C11
:10228000A6F8680686F83B717471F4E000380140E6
:10229000B8400020280000201800002086F883079E
:1022A0005054B6F86806401CA6F868061720B9E630
:1022B00086F882075054B6F86806401CA6F86806EF
:1022C0001820AFE65054B6F87E0696F83C11401F31
:1022D000814222D1B6F86806401CA6F8680686F846
:1022E0003B717473C5E086F864065054B6F868060E
:1022F000401CA6F868061A2094E65054B6F87E06EC
:1023000096F83C11401F814207D1B6F86806401C80
:10231000A6F8680686F83B71B473ACE0505496F8A2
:102320003C01EE283AD1B6F8680696F87E16884247
:1023300034D1F473F4740CE0505496F83C01EE2858
:102340002CD1B6F8680696F87E16884226D13474E9
:102350003475401CA6F86806F8E586F82C00505441
:10236000B6F86806401CA6F868061E205AE686F8ED
:102370002B005054B6F86806401CA6F868061F20CB
:1023800050E686F82A005054B6F86806401CA6F8B5
:102390006806202086F83B0186F863466BE05054BF
:1023A00096F863C696F83C210CF80A2096F83C0192
:1023B000EE287FF446AFB6F86806B6F87E2690425F
:1023C000F7D1C35C521F934218D1401C82B2A6F8C9
:1023D000682696F86306401E86F8630686F83B4139
:1023E000A6F86626584601F067F996F86326514626
:1023F000009801F061F986F827403CE0F472A5E509
:1024000086F82C005054B6F86806401CA6F86806FA
:10241000222007E686F82B005054B6F86806401CC8
:10242000A6F868062320FDE586F82A005054B6F881
:102430006806401CA6F868062420F3E586F86306C3
:102440005054B6F86806401CA6F868062520E9E551
:102450005054B6F87E0696F83C11401F81420AD1CE
:10246000B6F86806401CA6F8680686F83B7186F840
:102470002840A6F86C46012229460298FFF7BEFCC8
:102480000298F0490068884270D1EF4DEF48D5F8C6
:1024900070160068814201D285F83B4100F5FA7060
:1024A000E949C5F8700695F83B2101F59E762D3176
:1024B0004FF4FA70112A59D2DFE802F009121E27F0
:1024C00074B8CEF0EEEDECEBEAE9E8E7E60095F85B
:1024D0003C21A52A0CD1012085F83B01625405E07E
:1024E00095F83C015A2804D102223AE0A5F8680682
:1024F0009DE185F83B419AE1032085F83B0195F881
:102500003C01C21C85F87E263BE095F83C01102872
:1025100018D0112824D0122826D0212827D03028DE
:1025200027D0402827D0412827D0422827D0432829
:102530002ED045282ED046282ED050282ED06028C8
:102540002ED074E1042285F83B21B5F8682650545A
:10255000B5F86806401CA5F8680685F8634666E18C
:102560000D2285F83B210CE00E22FAE767E10522F7
:10257000F7E70622F5E70822F3E70A22F1E785F8F4
:102580003B71B5F868265054B5F86806401CADE7B5
:102590000B22E6E70F22E4E71022E2E70722E0E75A
:1025A0000C22DEE7B5F8682695F83C01A84F505498
:1025B00095F8632695F83C01D05595F83C01EE2836
:1025C00026D1B5F86826B5F87E06824220D1A7F25A
:1025D0002F33401FD35C834218D1521C92B2A5F80E
:1025E000682695F86306401E85F8630685F83B412A
:1025F000A5F86626A7F5077001F05EF895F8632642
:102600003946009801F058F82C7010E1EC7270E730
:10261000B5F86806401CA5F8680695F86306401CE6
:1026200085F86306042085F83B0100E1B5F86826CB
:1026300095F83C01505495F83C01EE280BD1B5F8C3
:10264000680695F87E16884205D1401CA5F86806F4
:1026500085F83B41AC71EAE0B5F8683695F83C2165
:102660005A54B5F86816491CA5F86816A5F87846B6
:10267000A5F87A46A5F87C06072085F83B010121DC
:1026800089F8AA19EC70D2E0BCE0A9E096E083E0FA
:102690006BE05EE046E02EE018E0FFE7B5F8682664
:1026A00095F83C01505495F83C01EE2822D1B5F83C
:1026B000680695F87E1688421CD1A5F87846A5F8DC
:1026C0007A460121E97089F8AA19ACE0B5F86826C4
:1026D00095F83C01505441F288303FE0B5F8680667
:1026E00095F87E16884205D1401CA5F8680685F845
:1026F0003B416C719BE0B5F8682695F83C0150545D
:1027000095F83C01EE280CD1B5F8680695F87E16D0
:10271000884206D1401CA5F8680685F83B4189F837
:10272000AD4984E0B5F8682695F83C01505495F819
:102730003C01EE287BD1B5F8680695F87E168842F4
:1027400075D1401CA5F8680685F83B4189F8AC496D
:102750006DE0B5F8683695F83C215A54A5F8800725
:1027600095F83C01EE28B9D061E0B5F8682695F8F7
:102770003C01505495F83C01EE2858D1B5F8680654
:1027800095F87E16884252D1401CA5F8680631485B
:1027900085F83B4104704AE0B5F8682695F83C019D
:1027A000505495F83C01EE2841D1B5F8680695F8EB
:1027B0007E1688423BD1EC73EC7434E0B5F86826A1
:1027C00095F83C01505495F83C01EE282FD1B5F80E
:1027D000680695F87E16884229D12C742C7522E063
:1027E000B5F8682695F83C01505495F83C01EE2860
:1027F0001DD1B5F8680695F87E16884217D185F880
:10280000224010E0B5F8682695F83C01505495F840
:102810003C01EE280BD1B5F8680695F87E16884283
:1028200005D185F82340401CA5F8680661E60298AA
:1028300003B03146BDE8F04F0122FFF7DFBABDE833
:10284000FE8F00000044004070200020180000208F
:10285000CB2300200000002070B50446406F2028E4
:102860003AD159B352B394F87000012834D0012002
:1028700084F87000E164A4F85020A4F852200025E8
:10288000E56721206067A06ED0B114498162A16E16
:1028900013481346C862A16E12480863A06E4563D0
:1028A0002668E16C06F12802A06EFDF729FF38B119
:1028B0001020E06784F8705020206067012070BD10
:1028C00021684020086284F870502068816841F0D7
:1028D00080018160002070BD022070BD05320008BB
:1028E00033320008BD3100082DE9F041484E8046E2
:1028F0000125307BE8BBB6F86C06401C80B2A6F818
:102900006C06B6F88217884247D2A522414C86F859
:102910005B245A2204EB410186F85C2491F8901163
:1029200004EB4000891C86F85D14032186F85E14D0
:10293000B0F89025B0F89011A01C06F25B4600F0AC
:10294000BFF9B6F81102A11C04EB4000B0F89021C9
:1029500031480746FDF7FFFCB6F81102EE2104EB03
:102960004000B0F89001C055B6F8110204EB4000E9
:1029700000E013E0B0F890212748401C1154B6F84D
:102980001102254904EB4000091FB0F89001801D99
:1029900082B22248FFF760FF00E035732049D8F883
:1029A0000000884231D11F480179F9B91E4900F56C
:1029B000D06305714FF0021206C31112A0F88816F9
:1029C00090F8791680F88A1690F8781680F88B16A9
:1029D0004FF6FF41A0F88C164FF6FF71A0F88E1647
:1029E00000F5D06110221148FFF736FF1048002192
:1029F0004278012A04D1817082790A2A00D141707B
:102A0000C278002A01D10171C570BDE8F0810000D3
:102A100028000020B840002087040020544B0020EC
:102A20000044004070200020EEB13200D44B002062
:102A3000000000207047FEE71D4808B5416941F0DD
:102A4000010141614069002200F00100009011463F
:102A50000C20FDF7C9FF0C20FDF7B8FF002211463E
:102A60000D20FDF7C1FF0D20FDF7B0FF002211463C
:102A70000E20FDF7B9FF0E20FDF7A8FF002211463A
:102A80000F20FDF7B1FF0F20FDF7A0FF0022114638
:102A90001020FDF7A9FF1020FDF798FF0022114636
:102AA0001120FDF7A1FFBDE808401120FDF78EBF02
:102AB000001002402DE9F04186B014216846FDF770
:102AC000C1FC2048416941F480014161416901F440
:102AD00080010591416941F400314161416901F48E
:102AE00000310591416941F48021416140694FF015
:102AF000904700F480200590012210213846FDF710
:102B000001FFDFF8448040F60206002231464046CD
:102B1000FDF7F8FE10200125CDE900050024032073
:102B2000CDE9024069463846FDF722FE0096CDE920
:102B30000154694640460394FDF71AFE06B0BDE80D
:102B4000F08100000010024000040048124810B557
:102B5000104901604FF48271416000214FF4E0623E
:102B6000C0E902124FF400720161C0E90512182297
:102B7000C0E9072107224162C0E90A120163082166
:102B80004163FEF7CBFC002803D0BDE81040FDF701
:102B900015BD10BD00300140684A00200D4810B539
:102BA0000B4901604FF416414160002181600C2205
:102BB000C160C0E904128161C16101624162FFF735
:102BC00023F8002803D0BDE81040FDF7F7BC10BD86
:102BD00000380140544B00200D4810B50B490160EE
:102BE0004FF416514160002181600C22C160C0E9A0
:102BF00004128161C16101624162FFF705F800289A
:102C000003D0BDE81040FDF7D9BC10BD0044004022
:102C1000D44B0020FEE7FEE7704770470EB501F089
:102C200073F905208DF8040064200090022302AAA5
:102C300001A90448FEF7F1FD01F060F99DF80900D3
:102C40000EBD0000684A00200148FEF7E9BB000005
:102C5000684A002010B5406A0021A0F84610C187DC
:102C6000FEF7DCFB10BDF8B515460E460B4600928C
:102C7000044600224FF4C05100F080F888B9334672
:102C8000002280212046009500F0C3F848B9334661
:102C900000224FF4C0612046009500F06FF8002834
:102CA00004D0206E40F0200020660320F8BD000014
:102CB0000249C8610846FEF731BC0000684A00209E
:102CC0007FB514460E46054601F01EF903208DF827
:102CD000040000208DF80500200A8DF806008DF80C
:102CE00007404FF0FF34042302AA01A906480094CC
:102CF000FEF793FD2A463346114603480094FEF73B
:102D00008CFD01F0FBF87FBD684A00202DE9FF41F2
:102D10001E4614460F46054601F0F6F803208DF8CE
:102D200004008DF80560200A8DF806008DF8074034
:102D30004FF0FF34042302AA01A907480094FEF7CC
:102D40006CFD2A463B46114603480094FEF765FD9C
:102D500001F0D4F8BDE8FF81684A002008B50120E1
:102D60008DF8000000208DF80100431E0222694604
:102D70000148FEF793FC08BD684A00202DE9F047A2
:102D80001D4617460E4604464FF4C068DDF82090F5
:102D90000CE0464501D107B9007B681C06D0FDF761
:102DA000B7FDA0EB0900A84208D23DB120688168B8
:102DB0003140B942EDD10020BDE8F087206841687C
:102DC00021F0E00141606068B0F5827F0BD1A0681E
:102DD000B0F5004F02D0B0F5806F04D120680168D3
:102DE00021F040010160A06AB0F5005F09D12068C0
:102DF000016821F4005101602068016841F400512C
:102E00000160012084F85D00002084F85C0003204C
:102E1000D2E72DE9F0411D4617460E460446DDF87F
:102E2000188008E0681C06D0FDF772FDA0EB0800D2
:102E3000A8420BD255B12068806836EA000030D035
:102E40000020B842EED10020BDE8F0812068416842
:102E500021F0E00141606068B0F5827F0BD1A0688D
:102E6000B0F5004F02D0B0F5806F04D12068016842
:102E700021F040010160A06AB0F5005F09D120682F
:102E8000016821F4005101602068016841F400519B
:102E90000160012084F85D00002084F85C000320BC
:102EA000D2E70120CDE70000F0B5ADF5037D144673
:102EB0000E46074601F028F80620C51F8DF80402CB
:102EC0002B46012281A91B48FEF7E8FB01F016F80A
:102ED00002208DF8040200208DF80502200A8DF8EA
:102EE00006028DF8074201F00FF8042301AA81A918
:102EF00010480095FEF791FC2B46324639460D48A6
:102F0000FEF7CCFB00F0FAFF04240CE000F0FCFF1D
:102F10008DF80442012301AA81A906480095FEF715
:102F20007CFC00F0EBFFFFF779FEC007EED10DF55A
:102F3000037DF0BD684A00202DE9F041ADF5027D2A
:102F40001E4614460F46804600F0DEFF0620C51FD1
:102F50008DF804022B46012281A91C48FEF79EFB36
:102F600000F0CCFF02208DF804028DF80562200AE3
:102F70008DF806028DF8074200F0C6FF042301AA6F
:102F800081A912480095FEF748FC2B463A46414677
:102F90000E48FEF783FB00F0B1FF04240DE000BFF4
:102FA00000F0B2FF8DF80442012301AA81A907486D
:102FB0000095FEF732FC00F0A1FFFFF72FFEC007DF
:102FC000EED10DF5027DBDE8F0810000684A0020D9
:102FD0007047000005480168491C01600179491CDF
:102FE0000171C188491CC180FDF798BC1800002000
:102FF00030B59DB028216846FDF724FA142117A8A2
:10300000FDF720FA34210AA8FDF71CFA0121080473
:10301000CDE900100024029402250491CDE9075067
:103020004FF4E01009906846FDF714FF08B172B63E
:10303000FEE70F20CDE917054FF48060CDE9194078
:10304000022117A81B94FDF7FBFD08B172B6FEE73D
:1030500003200A900C940D940AA8FDF7F7FC0028B1
:1030600001D072B6FEE71DB030BD00000548016812
:1030700041F47001016003494FF00060803908603D
:103080007047000088ED00E090F82410C90706D0D2
:1030900001684A68836A22F400321A434A6090F851
:1030A0002410890706D501684A68C36A22F4803271
:1030B0001A434A6090F82410490706D501684A6807
:1030C000036B22F480221A434A6090F82410090707
:1030D00006D501684A68436B22F400421A434A60ED
:1030E00090F82410C90606D501688A68836B22F41B
:1030F00080521A438A6090F82410890606D5016828
:103100008A68C36B22F400521A438A6090F8241034
:10311000490611D501684A68036C22F480121A43EB
:103120004A60016CB1F5801F06D101684A68436CA2
:1031300022F4C0021A434A6090F82410090606D50A
:1031400001684A68806C22F4002202434A6070479A
:10315000F8B500260446C667FDF7DAFB0546206889
:1031600000686FF07E47000708D52B4600224FF419
:1031700000112046009700F0C7F960B92068006888
:1031800040070AD52B4600224FF4800120460097C5
:1031900000F0BAF908B10320F8BD20206067A067ED
:1031A00084F870600020F8BD10B5406A0021A0F8D6
:1031B0005A10A0F85210FEF776FC10BD70B5446AA4
:1031C000606FA56F216889684FF00006090606D573
:1031D000212804D1A4F85260204600F03EF820686F
:1031E0008068400606D5222D04D1A4F85A602046F6
:1031F00000F024F8E06F40F01000E0672046FEF792
:1032000052FC70BD10B50146406A896920290DD075
:103210000021A0F8521001688A6822F080028A60BA
:103220000068016841F04001016010BDFFF75CFBE0
:1032300010BD10B5406AFFF7FDFB10BD01680A68BC
:1032400022F490720A6001688A6822F001028A60A2
:103250002021816700210166704701680A6822F019
:10326000C0020A6020214167704710B5B0F85C20A9
:10327000836F0168222B04D0886940F008008861C0
:1032800010BD898C436D11401980416D891C4165C9
:10329000B0F85A10491EA0F85A10B0F85A10002978
:1032A000EED101680A6822F490720A6001688A68A7
:1032B00022F001028A602021816700210166FEF769
:1032C000EBFD10BD10B5B0F85C20836F0168222BB8
:1032D00004D0886940F00800886110BD898C1140D5
:1032E000426D1170416D491C4165B0F85A10491E7C
:1032F000A0F85A10B0F85A100029EED101680A68F7
:1033000022F490720A6001688A6822F001028A60E1
:103310002021816700210166FEF7BEFD10BD00007F
:1033200070B5044680682169E26908436169002537
:103330001143084321680A6849F20C639A43024327
:103340000A6020684168E26821F4405111434160FD
:10335000A169206A084321688A6822F43062024326
:103360008A60614B206861494FF4803298420CD1E9
:10337000086B10F0030006D001285DD002285DD054
:10338000032844D156E0012142E0594B98420CD128
:10339000086B10F440304BD090424DD0B0F5003F58
:1033A0004CD0B0F5403F32D144E0524B98420DD161
:1033B000086B10F440203BD0B0F5802F3CD0B0F526
:1033C000002F3BD0B0F5402F21D133E04A4B98423B
:1033D0000DD1086B10F440102AD0B0F5801F2BD00F
:1033E000B0F5001F2AD0B0F5401F10D122E0434BAA
:1033F00098420CD1086B10F4400019D0B0F5800F42
:103400001AD0B0F5000F19D0B0F5400F12D010212E
:10341000E0694FF400434FF6EF76984234D1092922
:103420005BD2DFE801F00D10275A2A5A5A5A2D00B4
:103430000021EDE70221EBE70421E9E70821E7E7B6
:10344000FDF7A2FC01E0FDF7B7FC4100D4F8040051
:1034500001EB5001B1FBF0F080B2A0F11001B142DC
:103460003BD84FF6F0710140C0F3420001432068A1
:10347000C16033E022496068EAE7FDF7B5FCE4E7A4
:10348000606802EB5001E5E7092926D2DFE801F088
:10349000050817251C2525251F00FDF775FC01E0F3
:1034A000FDF78AFC616800EB5100B0FBF1F080B2DF
:1034B000A0F11001B14210D82168C8600EE0114996
:1034C000606801EB500105E0FDF78EFCEAE76068FB
:1034D00003EB5001B1FBF0F0E9E701250020206685
:1034E0006066284670BD00000038014000100240B0
:1034F0000044004000480040004C004000500040A4
:103500000024F40000127A002DE9F0479A4617468D
:103510000E4604464FF000094FF02008089D39E0A0
:10352000681C37D0FDF7F4F9A0EB0A00A84222D8B6
:103530000DB32068016849072CD5C069C043000558
:1035400028D421684FF4006008622068016821F4E3
:10355000D07101602068816821F001018160C4F8A8
:103560007480C4F87880C4F87C8000BF84F87090C0
:103570000320BDE8F0872068016821F4D071016064
:103580002068816821F001018160C4F87480C4F86A
:103590007880EBE72068C06936EA000004D000209C
:1035A000B842BDD00020E4E70120F9E70148FEF76A
:1035B0007BBA0000544B00200148FEF775BA0000AA
:1035C000D44B0020FEE70907090E002804DB00F1B8
:1035D000E02080F80014704700F00F0000F1E020B8
:1035E00080F8141D704700F00F00092801D8303012
:1035F0007047373070470009092801D830307047CC
:103600003730704770B5294C607B00284DD10120C0
:10361000607300202073A52084F85B045A2084F88E
:103620005C04B4F88207224D05EB400090F890014D
:10363000801C84F85D04032084F85E04B4F86C06F2
:1036400005EB4000B0F89025B0F89011A81CFFF7EA
:1036500037FBB4F86C06A91C05EB4000B0F89021CC
:1036600004F25F400646FCF776FEB4F86C06EE21E5
:1036700005EB4000B0F890018055B4F86C0605EBFE
:103680004000B0F8902104F58C601154B4F86C0639
:1036900004F25B4105EB4000B0F89001BDE87040DA
:1036A000801D82B20348FFF7D7B870BD2800002004
:1036B000B8400020544B002010B5002302E0CC5C41
:1036C000C4545B1C9342FADB10BD00000248002189
:1036D00001600171704700001800002010B500F073
:1036E000DBFD00F059FEBDE8104000F0A3BF000074
:1036F00005498A680868824205D8643088600221DA
:103700000248FDF7F9B8704718000020000400488F
:1037100010B5324C207913285FD2DFE800F05E0A42
:1037200010181E22282A2E32363A3E444A4E52564D
:103730005A0002202071BDE8104001F023B9032097
:10374000207101F035F9BDE8104001F0A7B904205F
:103750002071BDE8104000F057BE01F0CDF8052003
:103760003AE006202071BDE8104000F039B807208B
:1037700032E001F0A7F808202EE0FFF743FF092010
:103780002AE001F049F80A2026E000F087F80B2033
:1037900022E000F021FA0C201EE001F0FFFB01F016
:1037A0000DFD0D2018E000F0F3FB00F003FD0E20EE
:1037B00012E001F0E1F90F200EE000F0F3FE10201E
:1037C0000AE001F0AFFA112006E000F04BF91220F8
:1037D00002E000F089F80020207110BD18000020E0
:1037E0000448817A002903D10121817200F042B896
:1037F00070470000280000202DE9F041184C0020FF
:10380000EE26A07004F5D065164AB4F8661614E0EA
:10381000131827189B7897F83F71BB420CD00120F2
:10382000A0701148C4F8800684F8846605222946F1
:103830000E48FFF711F802E0401C8142E8DCA07856
:1038400000280BD10A48C4F8800684F8846629460B
:10385000BDE8F04105220548FEF7FEBFBDE8F08156
:1038600028000020B8400020A55A0101544B002038
:10387000A55A010010B50020074902464FF4007414
:1038800001EB4003401CA3F89025A3F89021A0422F
:10389000F6DBA1F8902910BDB840002010B50D4C02
:1038A0002078002815D1A0710120207060700C488C
:1038B0000A4A0949C0E900124FF6FC710181FF2153
:1038C000817201460B220748FEF7C6FFA079401C13
:1038D000A07110BD00000020EEB15300020001FFF6
:1038E000F0260020D44B00202DE9F84F5A4CDFF889
:1038F0006C91012794F823004FF400684FF4784A44
:103900000025E8BB84F826506572A4F8745684F844
:103910007656002604F6847BA01900F580504146B7
:1039200080F8845F94F87636B4F874265846FFF72A
:1039300003FB94F8760610B1012809D010E0B4F822
:103940007406504508D384F87676A4F8745607E0D8
:10395000B4F87406504506D200F50060A4F8740669
:10396000761C402ED8DB84F8227084F82370FF2068
:10397000A9F80650A4F86A0600224146384800E03B
:1039800001E0FCF7BFFFB4F86A16B9F806008142FF
:1039900060D1607A00285DD167720026B946A4F82C
:1039A0006A660122454641462D48FCF7ABFFA4F864
:1039B000746641F2847084F8766620440090AB46C9
:1039C00041F68470271804F5805500BF94F87636C8
:1039D000B4F87426D84659460098FFF797F942463E
:1039E0000020CC464FEA040808EB000101F58051A5
:1039F00091F88417FF2907D095F8C43FD95D491C79
:103A0000C9B2D955FF2908D095F8C41FC95D09B1BD
:103A100088F826C0401C9042E6DB98F8760610B184
:103A2000012808D013E0B8F87406504507D388F889
:103A300076C6002005E0B8F87406504504D200F5BB
:103A40000060A4F8740602E0002084F82200761CCE
:103A5000402EBBDBBDE8F88F70200020180000204E
:103A6000000400482DE9F84F584CDFF86491012616
:103A700094F822004FF400684FF4784A0025C8BB40
:103A800084F82050A4F8745684F87656002704F27F
:103A9000847B00BF94F87636B4F8742641465846C5
:103AA000FFF74AFA94F8760610B1012809D010E021
:103AB000B4F87406504508D384F87666A4F87456B2
:103AC00007E0B4F87406504506D200F50060A4F88B
:103AD00074067F1C402FDDDB84F8226084F82360AD
:103AE000A9F80650FF20A4F86A060022414639488A
:103AF000FCF708FFB4F86A16B9F80600814262D1F3
:103B000094F8200000285ED1B14684F82060002699
:103B1000A4F86A660122454641462E48FCF7F2FEAB
:103B2000A4F8746641F2847084F8766620440090AC
:103B3000AB4641F68470271804F5805594F8763624
:103B4000B4F87426D84659460098FFF7DFF8424685
:103B50000020CC464FEA040808EB000101F5805133
:103B600091F8841739B195F8C43FD95D491CC9B2A1
:103B7000D955FF2908D095F8C41FC95D09B188F847
:103B800026C0401C9042E7DB98F8760610B1012869
:103B900008D015E0B8F87406504507D388F876C603
:103BA000002005E0B8F87406504504D200F5006026
:103BB000A4F8740604E0002088F8240084F8650660
:103BC000761C402EBADBBDE8F88F00007020002084
:103BD00018000020000400482DE9FE4FC34CC44FDC
:103BE0004FF4006A60794FF0000B4FF47848E8BB5F
:103BF0004FF0010984F8059084F809B0A4F874B670
:103C000084F876B604F684705D4600260090A0190C
:103C100000F58050514680F8845F94F87636B4F809
:103C200074260098FFF788F994F8760610B10128F9
:103C300009D010E0B4F87406404508D384F87696AD
:103C4000A4F8745607E0B4F87406404506D200F5AF
:103C50000060A4F87406761C402ED8DBFD80B4F812
:103C60008007A4F86A060022514600E002E0A1485D
:103C7000FCF748FE9E489D4DB4F86A16C28841F292
:103C800084702844019005F5D060009041F684705E
:103C90002E1805F5805591426ED1607A90BB0120B7
:103CA000607202465F46A4F86AB6D1465146914812
:103CB000FCF728FEA4F8747684F876765FF00007A7
:103CC00094F87636B4F8742649460198FFF71EF842
:103CD00000204A46211801F5805191F88417FF29E8
:103CE00007D095F8C43F995D491CC9B29955FF2981
:103CF00002D0401C9042EDDB94F8760618B1012802
:103D00000BD036E038E0B4F87406404509D3012002
:103D100084F87606A4F874B62BE0B4F8740640452F
:103D200004D200F50060A4F8740622E0A52084F80F
:103D300080065A2084F88106422084F882064520B5
:103D400084F883060020221841F68471401C895CA7
:103D500082F884164028F6DB402084F8C406EE2062
:103D600084F8C506462264480099FEF775FD84F87C
:103D70001FB07F1C402FA3DBE07FE8BB0120E07772
:103D800084F820B0A4F874B684F876B604F284718E
:103D90000027D9460291E11901F5805181F8849FED
:103DA00094F87636B4F8742651460298FFF7C4F8B2
:103DB00094F8760610B101280AD011E0B4F8740620
:103DC000404509D3012084F87606A4F8749607E0EC
:103DD000B4F87406404506D200F50060A4F87406F5
:103DE0007F1C402FD7DB42490022A1F80690B4F88F
:103DF0008007A4F86A0600E003E051463D48FCF75E
:103E000081FD3B48B4F86A16C08881426CD194F8B1
:103E10002000002868D1012084F8200002465F4677
:103E2000A4F86AB6D14651463248FCF76BFDA4F8B7
:103E3000747684F87676002794F87636B4F874268B
:103E400049460198FEF762FF00204A46211801F515
:103E5000805191F8841739B195F8C43F995D491C98
:103E6000C9B29955FF2902D0401C9042EEDB94F86C
:103E7000760610B101280AD033E0B4F87406404544
:103E800009D3012084F87606A4F874B629E0B4F8C2
:103E90007406404504D200F50060A4F8740620E0E2
:103EA000A52084F880065A2084F88106422084F8F0
:103EB0008206462084F883060020211841F6847289
:103EC000401C525C81F884264028F6DB402084F8B0
:103ED000C406EE2084F8C506462207480099FEF77E
:103EE000BBFC7F1C402FA7DBBDE8FE8F2800002015
:103EF0001800002000040048544B0020012210212B
:103F00004FF09040FCF7FEBC002210214FF0904093
:103F1000FCF7F8BC30B50A230CE000BFB1FBF3F4AA
:103F200003FB1414B1FBF3F185183034521E05F86D
:103F3000014CD2B2002AF1D130BD0000002148B1BD
:103F40005FF00A02B0FBF2F0491CC9B20028F9D1B7
:103F50000846704701207047FCF7E8FCFFF748F877
:103F6000FEF7A8FDFEF768FDFEF718FEFEF7EEFD72
:103F7000FEF732FEFFF7AAFB00F026FE00F026FC5B
:103F8000FFF7ACFBFFF7B4FBFFF7C2FBF8E700005D
:103F90002DE9F0477F4800240125017C00F580567B
:103FA00081B905748474A0F8744680F8764686F862
:103FB000C44F0021421802F58052491C82F8844FF8
:103FC0004029F7DB817C4FF478474FF4006A0029E1
:103FD0006CD1017DF1B30475804690F87636B0F867
:103FE000742651466C48FEF791FE404641F68472B5
:103FF0000021D0460244431803F5805393F88437D8
:10400000FF2B09D096F8C4CF1CF802305B1CDBB242
:104010000CF80230FF2B02D0491C4145EBDB96F82F
:10402000C41F491C86F8C41F90F876160029B0F802
:10403000741630D0B94235D18574A52180F8801628
:104040005A2180F88116422180F88216162180F8C4
:10405000831600E015E00021421841F68473491CE4
:104060009B5C82F884364029F6DB402180F8C41638
:10407000EE2180F8C516462248494948FEF7ECFB78
:1040800014E0057590F87636B0F874265146454828
:10409000FEF752FF0AE0B94204D180F87656A0F844
:1040A000744603E001F50061A0F874163E4800F57F
:1040B0008056017C91B905748474A0F8744680F828
:1040C000764686F8C44F80F825400021421802F554
:1040D0008052491C82F8844F4029F7DB817C0029FB
:1040E0004BD1017DB9B30475814690F87636B0F8AE
:1040F0007426D04651462D48FEF708FE41F68472DC
:10410000002148464A44431803F5805393F8843706
:10411000FF2B09D096F8C4CF1CF802305B1CDBB231
:104120000CF80230FF2B08D096F8C43F9B5C0BB113
:1041300080F82550491C4145E5DB96F8C41F491C11
:1041400086F8C41F90F876160029B0F874160ED0C1
:10415000B94219D013E0FFE7057590F87636B0F84C
:1041600074265146BDE8F0471148FEF7E5BEB94256
:1041700005D180F87656A9F87446BDE8F08701F5B8
:104180000061A9F87416F8E7857480F8214089F871
:104190006546F2E728000020AC170020A8060020A2
:1041A000544B0020AC0F002070200020F43700207A
:1041B000F42F00202DE9F041344C01270025A07D8B
:1041C00004F5805680B9A7752576A4F8745684F84E
:1041D000765686F8C45F0020211801F58051401CF6
:1041E00081F8845F4028F7DB207E002844D1A07E40
:1041F0004FF40061E8B1A57694F87636B4F87426E9
:1042000088462348FEF782FD00204146221802F529
:10421000805292F88427FF2A15D096F8C40F04EB39
:10422000400000F58050B0F8C61F491CA0F8C61F1A
:104230000CE0A77694F87636B4F87426BDE8F04121
:104240001448FEF779BE401C8842DFDB96F8C40FA5
:104250004FF47841401C86F8C40F94F87606002885
:10426000B4F8740602D088420DD007E0884205D128
:1042700084F87676A4F87456BDE8F08100F5006005
:10428000A4F87406F8E727766577F5E7280000209C
:10429000AC170020AC0F002070B5354C01252078FC
:1042A000A0B925700023B4F866161A4604F23F1030
:1042B000FEF742FE2F48C4F88006EE2084F88406FC
:1042C000052204F5D0612C48FEF7C6FA2B4C207865
:1042D00000284BD1257094F8631600222848FEF779
:1042E000E3FD284804F5D062274903C247F63000B1
:1042F000A4F888060021254A0FE0531893F810010E
:10430000FFF779F904EB410585F88A0693F8100167
:10431000FFF769F985F88B06491C94F86306884213
:10432000EBDC94F86316FF2004EB410181F88A0668
:1043300094F86326FC2104EB420282F88B1694F871
:10434000631604EB410181F88C0694F8631604EBC4
:10435000410181F88D0694F863060E21BDE8704096
:1043600001EB40020A490B48FEF776BA70BD000027
:1043700028000020A55A0111544B00207020002075
:10438000C8410020EEB1100003000620B840002014
:10439000F0260020D44B002010B5174C207A0028BE
:1043A00029D101202072B4F88217144894F86326AA
:1043B00000EB4101A1F89021B0F89039A1F89035B7
:1043C000B0F890391A44A0F89029B1F89025B1F8C6
:1043D000901100F58870FEF767FD0948C4F8800663
:1043E000EE2084F8840604F5D061BDE81040052273
:1043F0000448FEF731BA10BD28000020B840002064
:10440000A55A0111544B00202DE9F0475C4C5D4D3D
:104410000126A07968B9A6710023B4F866161A4679
:10442000A81CFEF773FCB4F86626A91C5648FEF7D4
:1044300013FA564CA07900287DD1A67194F8631622
:104440000022A81CFEF73CFC0022A27010464FF090
:104450007808FF214FF0FC0ADFF8349194F86336B6
:1044600009E02F1897F802C097F81071BC4501D0E9
:10447000A67004E0401C8342F3DC100008D04548DD
:1044800004F5D066444B09C684F88886002348E0CA
:10449000404B04F5D060404F88C084F888860023E4
:1044A000A84610E008EB030797F81001FFF7A3F800
:1044B00004EB430585F8890697F81001FFF793F898
:1044C00085F88A065B1C94F863069842EADCC0B261
:1044D00004EB400080F8891694F8633604EB43033C
:1044E00083F88AA694F8630604EB400080F88B16E4
:1044F00094F8630604EB400080F88C1689F8056098
:104500002FE0EF1897F81001FFF775F804EB43065A
:1045100086F8890697F81001FFF765F886F88A068D
:104520005B1C94F863069842EBDCC0B204EB4000DD
:1045300080F8891600E021E094F8633604EB430329
:1045400083F88AA694F8630604EB400080F88B1683
:1045500094F8630604EB400080F88C16022189F879
:10456000051089F8032094F86306BDE8F0470D2193
:1045700001EB400209490A48FEF76EB9BDE8F08731
:1045800028000020B8400020544B0020702000205C
:1045900000000020EEB1100003000730F0260020DC
:1045A000D44B002070B51F4C94F82800002837D158
:1045B000012084F828001C4D94F82C30628D94F86A
:1045C0006316A81CFEF7A2FBA52084F880065A20DB
:1045D00084F8810694F86306801C84F882062520FE
:1045E00084F88306002105E068186218807882F854
:1045F0008406491C94F863068842F5DC0B49C0B276
:1046000040540A4894F86326401CEE21115494F853
:104610006326BDE87040411F0548921DFEF71CB996
:1046200070BD000028000020B8400020AC0600202B
:10463000544B00202DE9F047554D564CFF27A978E3
:104640004FF0010804F5D0694FF6FC76002979D1C6
:1046500085F80280A8790A2874D2DFE800F0730593
:10466000131E2934404C57624B4804F5D0624FF07A
:10467000021103C26FF44070C4F888060220A871CA
:104680000C225BE0454804F5D062454903C2A4F81A
:10469000886684F88A7603204EE0404804F5D062AC
:1046A000404903C2A4F8886684F88A76042043E06F
:1046B0003A4804F5D0623C4903C2A4F8886684F8FD
:1046C0008A76052038E03749344804F5D062491C21
:1046D00003C2A4F8886684F88A7606202CE0324962
:1046E0002E4804F5D062491C03C2A4F8886684F8F9
:1046F0008A76072020E0294804F5D0622B4903C2BE
:10470000A4F8886684F88A76082015E0284804F51D
:10471000D062284903C2A4F8886684F88A76092002
:104720000AE02449224804F5D062491C03C2A4F8D7
:10473000886684F88A760A20A8710B2249461E48AA
:10474000FEF78AF82879002820D185F80480687956
:10475000012802D0022817D107E0184904F5D064D7
:104760000E48C4E90001164806E0164904F5D06475
:104770000A48C4E900011448A060A681A7730F226B
:1047800049460D48FEF768F800206871BDE8F087DB
:104790000000002070200020EEB13300EEB11000C8
:1047A000030006FF030007FF030008FF040009FFE2
:1047B000EEB15300090001FFD44B0020030008D5DF
:1047C000FDC8B7FF030008B4EDCEF3FF70B5114C80
:1047D0000125002684F8A85984F8A9596670A4F820
:1047E0009061A4F890650820207084F8AA59A81E4A
:1047F00004F69C11C4F8980941C1C4F8A469FEF7F5
:10480000ADFAA4F8906984F8AB5984F8AC5984F8EF
:10481000AD5970BDB840002070B5264CA07B002873
:1048200047D10125A5732448C4F880060020A4F8C8
:10483000840694F86406082830D2DFE800F02F04DC
:104840000A12181E242A0820FEF732FA4FF480605C
:1048500004E01020FEF72CFA4FF40060A4F8840660
:104860001CE01820FEF724FA4FF48050F6E72020D1
:10487000FEF71EFA4FF40050F0E72820FEF718FA72
:104880004FF48040EAE73020FEF712FA4FF4004080
:10489000E4E73820FEF70CFAA4F884564EF60260DE
:1048A000A4F88606BDE87040082204490448FDF7D4
:1048B000D3BF70BD28000020A55A0481A80600209F
:1048C000544B00200948C17A00290DD10121C17241
:1048D0000749C0F88016EE2180F8841600F5D061F3
:1048E00005220448FDF7B8BF7047000028000020EB
:1048F000A55A0112544B002030B51F4DADF5037D74
:10490000E879002834D10120E871A5208DF8000055
:104910005A208DF80100B5F88207184C04EB4000CE
:10492000B0F890118A1C8DF8022003228DF8032024
:10493000B0F89025A01CFEF7C3F9B5F88207A11CBA
:1049400004EB4000B0F8902101A8FBF704FDB5F896
:10495000820701A904EB4000EE22B0F89001405418
:10496000491C4254801D82B269460548FDF774FF18
:104970000DF5037D30BD000028000020B840002068
:10498000544B0020084810B5417800290BD1012173
:104990004170B0F8661600220448FEF791F9BDE8B0
:1049A0001040FEF729BF10BD28000020BA400020AB
:1049B000F8B5344CE078002862D1334D00263246F9
:1049C00095F8AA094FF008010128284632D000F5D1
:1049D0001A60FEF775F905F698100FC85040594057
:1049E000084304D0B4F87806401CA4F878060120E7
:1049F00085F8AA09B4F87A06401C80B2A4F87A06B1
:104A0000B4F87C1688423BD1204804F5D062204996
:104A100003C23B2784F88876B4F878361846FFF747
:104A20008DFA0546024619466846FFF773FA0020DC
:104A300069460BE000F69810FEF736FA85F8AA6989
:104A4000D8E70A5C2318401C83F88926A842F8DBC3
:104A50006019FF2180F8897680F88A16FC2280F898
:104A60008B2680F88C1680F88D16267105F10E02C3
:104A700008490948FDF7F0FEA4F87866A4F87A66BC
:104A8000F8BD000070200020B8400020EEB15200B8
:104A900002000130F0260020D44B00202DE9F04127
:104AA000324C01200025E17E61B9E076E5700021FD
:104AB00004EB410202F58052491CA2F8C65F40296E
:104AC000F6DB6575E178002940D1217F09B92077AF
:104AD000A575617F002939D16077B4F87A16A526CB
:104AE000491C8FB2A4F87A76B4F87CC65A23EE2219
:104AF0001F4967452CD1A07784F8806684F88136F9
:104B0000822084F88206052084F88306002023187A
:104B100041F6C676401CF65C83F884668028F6DB96
:104B2000802084F8040784F80527002004EB400265
:104B300002F58052401CA2F8C65F4028F6DBA4F8BC
:104B40007A5686220B48FDF787FE6575BDE8F08131
:104B500084F8806684F8813684F88206312084F8EF
:104B6000830684F884260522ECE700002800002054
:104B7000A8060020544B002010B50F4C94F82700D5
:104B8000002818D1012084F8270094F82C30628D79
:104B900094F863160948FEF7CFF90948C4F880066F
:104BA000EE2084F8840604F5D061BDE810400522AB
:104BB0000448FDF751BE10BD28000020C841002068
:104BC000A55A0111544B00202DE9F0414E4E01240D
:104BD000002734707470C6F87076F470A6F8787692
:104BE000A6F87A76B7707471B471224606F59E7194
:104BF0004648FDF703F9F4713472B4727472F472BA
:104C000034737473B473F4743475B4747474347426
:104C1000F4737476B4763476F475B4757475F4768A
:104C200034777477B47786F8274086F8284086F87A
:104C30002040F47786F8214086F8234086F8224009
:104C400086F82440324D86F8264086F825402C70A0
:104C50006C70C5F87076EC70A5F87876A5F87A7661
:104C6000AF706C71AC71012205F59E712948FDF79A
:104C7000C5F8EC712C72AC726C72EC722C736C73A4
:104C8000AC732C71EC742C75AC746C742C74EC7368
:104C90006C76AC762C76EC75AC756C75EC76AC7786
:104CA00085F8274085F8284085F82040EC7785F87E
:104CB000214085F8234085F8224085F82440164895
:104CC00085F8267085F825700470477087718470A8
:104CD0004771C47004710020FF21E302321882F88A
:104CE000847782F8841F2A18401C82F8847782F81F
:104CF000841F9842F2DB094880F8C47F084880F896
:104D0000C47FBDE8F081000028000020544B002043
:104D100070200020D44B002000000020281000202C
:104D2000703000202DE9F84F8F4841F684728618C4
:104D300090F821100027B32500F5D0604FF0A308AC
:104D40004FF03B0A0090002966D18748874900F55B
:104D5000D063874A06C380F888A690F86526514636
:104D6000925D2AB1D222012780F88926EC2203E045
:104D7000D52280F88926FD2280F88A2680F88B5675
:104D800080F88C8680F88D164FF0FF0980F88E969B
:104D9000FC2280F88F2680F8909680F891968346C2
:104DA000122274480099FDF757FD724C2068C169C2
:104DB000C9434906FBD49BF865165846491CC9B23D
:104DC0008BF86516402927D1012180F8211090F831
:104DD00025106A4A002900F5D0606749C0E9001231
:104DE0002DD0684A6649C0E90212654A6649C0E9A1
:104DF0000412664A6349C0E906128BF8A096212284
:104E00005C480099FDF728FD2068C169C94349063F
:104E1000FBD400208BF82500534C94F82400002884
:104E200068D15349514804F5D062491C03C284F843
:104E300088A694F865165046895DE1B91AE0554A8E
:104E40005349C0E902125049514A5039C0E904128D
:104E50004E4A5049503AC0E906128BF8A0962122DA
:104E600044480099FDF7F8FC2068C169C943490628
:104E7000FBD4D1E7EFB3D22184F889165FF0EC01BF
:104E800084F88A1684F88B5684F88C8684F88D060C
:104E9000FF2684F88E66FC2084F88F0684F89066DE
:104EA00084F89166122233480099FDF7D5FC314D04
:104EB0002868C169C9434906FBD494F86506401CBB
:104EC000C0B284F8650640282CD1012084F8240063
:104ED00094F826003049002804F5D0642648C4E937
:104EE000000126D027492648C4E902012648244962
:104EF00001E019E016E0C4E9040124492148C4E9AD
:104F0000060184F8206021221A48A4F5D064009993
:104F1000FDF7A2FC2868C169C9434906FBD40020FB
:104F200084F82600BDE8F88FD52184F88916FD2184
:104F3000A6E718491648C4E9020113481449503835
:104F4000C4E90401114913485039C4E9060184F841
:104F50002060212207480099FDF77EFC2868C1697E
:104F6000C9434906FBD4DDE770200020EEB15200B2
:104F700009000130D44B0020EEB1120009000600F8
:104F800008B3F6CFD6B4EDCEF3000700F3FFFCFF75
:104F900008B4E6B4A2D5FDB30A0006002DE9F04737
:104FA0007E4800240125C17B00F5805681B9C57378
:104FB0004474A0F8744680F8764686F8C44F002101
:104FC000421802F58052491C82F8844F4029F7DBD1
:104FD000417C4FF478474FF4006A00296BD1C17CC3
:104FE000F1B3C474804690F87636B0F87426514612
:104FF0006B48FDF78BFE404641F684720021D04697
:105000000244431803F5805393F884374BB196F864
:10501000C4CF1CF802305B1CDBB20CF80230FF2B53
:1050200002D0491C4145ECDB96F8C41F491C86F8A8
:10503000C41F90F876160029B0F8741630D0B94223
:1050400035D14574A52180F880165A2180F8811643
:10505000422180F88216152180F88316002100E095
:1050600014E0421841F68473491C9B5C82F8843634
:105070004029F4DB402180F8C416EE2180F8C516E3
:10508000462248494848FDF7E7FB14E0C57490F80C
:105090007636B0F8742651464448FDF74DFF0AE0D5
:1050A000B94204D180F87656A0F8744603E001F5C1
:1050B0000061A0F874163E4800F58056C17B91B996
:1050C000C5734474A0F8744680F8764686F8C44FD9
:1050D00080F825400021421802F58052491C82F8D0
:1050E000844F4029F7DB417C00294AD1C17CB1B310
:1050F000C474814690F87636B0F87426D04651468E
:105100002C48FDF703FE41F68472002148464A44CC
:10511000431803F5805393F884374BB196F8C4CF06
:105120001CF802305B1CDBB20CF80230FF2B08D0FD
:1051300096F8C43F9B5C0BB180F82550491C414553
:10514000E6DB96F8C41F491C86F8C41F90F8761653
:105150000029B0F874160ED0B94219D013E0FFE759
:10516000C57490F87636B0F874265146BDE8F0471D
:105170001148FDF7E1BEB94205D180F87656A9F88D
:105180007446BDE8F08701F50061A9F87416F8E7E8
:10519000457480F8214089F86546F2E72800002030
:1051A000AC170020A8060020544B0020AC070020BC
:1051B00070200020F4370020F42700202DE9F04172
:1051C000304C01270025607D04F5805618B3E07D42
:1051D00000284CD1607E4FF4006128B3657694F8C6
:1051E0007636B4F8742688462748FDF78FFD0020F0
:1051F0004146221802F5805292F88427F2B196F8BF
:10520000C40F04EB400000F58050B0F8C61F491CE5
:10521000A0F8C61F15E06775E575A4F8745684F804
:10522000765686F8C45FD5E7677694F87636B4F894
:105230007426BDE8F0411548FDF77EBE401C88424B
:10524000D7DB96F8C40F4FF47841401C86F8C40FA2
:1052500094F876060028B4F8740602D088420DD07F
:1052600007E0884205D184F87676A4F87456BDE844
:10527000F08100F50060A4F87406F8E7E77525777B
:10528000F5E7000028000020AC170020AC07002044
:105290004FF04070E1EE100A704702030405060764
:1052A00008090A0B0C0D0E0F10100102030405066D
:1052B0000708090A0B0C0D0E0F100000000000007B
:1052C00000000102030406070809000000000102B3
:1052D00003040000F4520008000000201800000041
:1052E000C40100080C53000818000020B05300004F
:1052F000E0010008000000000000000001000000C4
:0C530000100000000000000000127A0005
:040000050800018965
:00000001FF
